:100000000C9434000C943E000C943E000C943E0082
:100010000C943E000C943E000C943E000C943E0068
:100020000C943E000C943E000C943E000C943E0058
:100030000C943E000C943E000C943E000C943E0048
:100040000C943E000C943E000C943E000C943E0038
:100050000C943E000C943E000C943E000C943E0028
:100060000C943E000C943E0011241FBECFEFD8E04C
:10007000DEBFCDBF0E9440000C9489000C940000AC
:10008000529A259A80918100826080938100E0E0FD
:10009000F0E051E080E2E827E5B92091840030915A
:1000A0008500809184009091850022273074330F61
:1000B000220B330F322F221F990F880B982F822B80
:1000C000932B880F991F880F991F8BB96FE170E0F0
:1000D00046B38091840090918500209184003091F6
:1000E000850088279074990F880B990F982F881F87
:1000F000330F220B322F822B932B880F991F880FDF
:10010000991F8BB940FFE4CF56BB6150710901F7CD
:06011000C1CFF894FFCFFF
:00000001FF
