:100000000C9434000C943E000C943E000C943E0082
:100010000C943E000C943E000C943E000C943E0068
:100020000C943E000C943E000C943E000C943E0058
:100030000C943E000C943E000C943E000C943E0048
:100040000C943E000C943E000C943E000C943E0038
:100050000C943E000C943E000C943E000C943E0028
:100060000C943E000C943E0011241FBECFEFD8E04C
:10007000DEBFCDBF0E9440000C9470000C940000C5
:10008000529A259A80918100826080938100E0E0FD
:10009000F0E051E080E2E827E5B96FE170E046B3B7
:1000A000809184009091850020918400309185009A
:1000B00088279074990F880B990F982F881F330FFA
:1000C000220B322F822B932B880F991F880F991F99
:1000D0008BB940FFE4CF56BB6150710901F7DACF0D
:0400E000F894FFCFC2
:00000001FF
