:020000020000FC
:100000000CE10AB9259A05E005BDF0E000E010E03A
:1000100020E0A02EB12EBB0CC22ECC0CCC0CAB28F9
:10002000AC28AA0CAA0C3A2D0C94160080E2F827F2
:10003000F5B990E205D0F030C9F300D03BB908C063
:10004000A5B3B1E0AB23E1F3B5BB9A95C9F7089529
:10005000C1E0A02EB02EAC26D12E912EE12EEC26A2
:10006000522E122E622E6C26062C5B20DA205D2882
:10007000252D6B206D28162D0E2091200928002D8E
:040080000C940900D3
:00000001FF
